:1000000071C000008FC000008DC000008BC00000D8
:1000100089C000009DC1000076C1000083C00000BF
:1000200081C000007FC000007DC000007BC00000D8
:1000300079C0000077C0000075C0000073C00000E8
:1000400071C000006FC000006DC000006BC00000F8
:1000500069C0000067C0000065C0000063C0000008
:1000600061C000005FC000005DC000005BC0000018
:1000700059C0000057C0000055C0000053C0000028
:1000800051C000004FC000004DC000004BC0000038
:1000900049C0000047C0000045C0000043C0000048
:1000A00041C000003FC000003DC000003BC0000058
:1000B00039C0000037C0000035C0000033C0000068
:1000C00031C000002FC000002DC000009AC3000006
:1000D00029C0000027C0000025C0000023C0000088
:1000E00021C0000011241FBECFEFD1E2DEBFCDBF83
:1000F00000E00CBF12E0A0E0B2E0E0E9F5E100E0D2
:100100000BBF02C007900D92AC35B107D9F722E0C2
:10011000ACE5B2E001C01D92AB3CB207E1F71ED7DF
:100120000C94C60A6DCF86E69EE00197F1F70000B9
:100130004098419880E388B9429AEFEFF7E431970D
:10014000F1F700C000004298E6E6FEE03197F1F7D3
:1001500000004098419888B9429AEFEFF7E4319750
:10016000F1F700C000004298E6E6FEE03197F1F7B3
:1001700000004098419888B9429A8FEF97E4019720
:10018000F1F700C000004298E6E6FEE03197F1F793
:1001900000004098419880E288B9429A8FEF97E436
:1001A0000197F1F700C000004298089598B19F7040
:1001B00098B998B1282F207F922B98B940984198F0
:1001C000429AEFEFF7E43197F1F700C00000429850
:1001D00098B19F7098B998B18295807F892B88B922
:1001E00040984198429A8FEF97E40197F1F700C049
:1001F00000004298089586E69EE00197F1F700001E
:1002000088E2D4DF81E0D2DF86E0D0DF8EE0CEDF8F
:1002100080E8CCCF089598B19F7098B998B1282FF5
:10022000207F922B98B9409A4198429AEFEFF7E4D9
:100230003197F1F700C00000429898B19F7098B9CB
:1002400098B18295807F892B88B9409A4198429ACB
:100250008FEF97E40197F1F700C0000042980895EE
:1002600080E8A4CF0895CF93DF93EC0188818823A1
:1002700029F02196D0DF89918111FCCFDF91CF91B8
:100280000895823069F018F4813031F00895833098
:1002900059F0843069F008958FE7860F87CF08956D
:1002A0008FEB860F83CF089583E9860F7FCF089564
:1002B00083ED860F7BCF089580E878DF8FE092E0B2
:1002C000D2DF80EC73DF8FE092E0CDDFC9CF0895FD
:1002D0006C98749A08956D98759A0895F9DFFBCF1C
:1002E0000895F894EAE6F0E0808182608083EC9AD9
:1002F00078940895F894EAE6F0E08081886080833D
:10030000ED9A789408951F920F920FB60F921124D0
:100310008F939F93AF93BF9380918A0290918B02AA
:10032000A0918C02B0918D020196A11DB11D809308
:100330008A0290938B02A0938C02B0938D02BF919E
:10034000AF919F918F910F900FBE0F901F901895B6
:100350001F920F920FB60F9211248F939F93AF931A
:10036000BF9380918E0290918F02A0919002B091E4
:1003700091020196A11DB11D80938E0290938F0270
:10038000A0939002B0939102BF91AF919F918F91F2
:100390000F900FBE0F901F901895259A2D9A0895D3
:1003A000269A2E9A0895279A2F9A089510928900D6
:1003B000682F70E080E090E00E94380A2BE734E17B
:1003C0004EEE5FE3C1D720E030E04CE052E458D776
:1003D0000E940C0A60938800089510928B00682F89
:1003E00070E080E090E00E94380A2BE734E14EEEA6
:1003F0005FE3AAD720E030E04CE052E441D70E940E
:100400000C0A60938A00089510928D00682F70E0A6
:1004100080E090E00E94380A2BE734E14EEE5FE383
:1004200093D720E030E04CE052E42AD7F5D7609330
:100430008C00089583E0809389008FEF809388007B
:10044000089583E080938B008FEF80938A00089556
:1004500083E080938D008FEF80938C00089581B1AD
:100460008F6081B982B1807F82B9EAE0F1E080815A
:1004700088618083EBE0F1E080818861808308956A
:1004800084B1876084B985B1876085B9089587B1E3
:10049000876F87B988B1807888B908953B9A439867
:1004A000089510BA11BA1092070110920801089528
:1004B000EAE0F1E0808188618083EBE0F1E0808117
:1004C000886180830895CBDF68DF6ADF6CDFD8DF67
:1004D000DEDFE4DFFDDEFFDEE4DFEADFFFCE0895EE
:1004E000E1E2F1E010828FEF8093250191E090939B
:1004F0002401109229018093280110922B018093EE
:100500002A0110922D0180932C0189EA8093200109
:100510008BE080830895E1E8F0E010828CEF809317
:10052000850081E08093840093E0909389008FEFB1
:100530008093880090938B0080938A0010928D00A6
:1005400010928C0083EA80938000109282008CE0ED
:1005500080830895E1EDF0E010821092D00086E0F3
:100560008093D2001092D50087E08093D40088E970
:100570008083089583E58CBD1DBC1EBC0895EAE709
:10058000F0E0108210927B0080E280937C0080E893
:1005900080BF86E880830895883018F098E09093B3
:1005A0007B008770806280937C0010929402EAE75F
:1005B000F0E0808180648083808184FFFDCF809122
:1005C0007900EAE7F0E090819061908310927B00DF
:1005D000089528988EBD0DB407FEFDCF86E69EE0F7
:1005E0000197F1F7000080E58EBD0DB407FEFDCF49
:1005F0008EB5289A089583E0CFDF8093950282E03C
:10060000CBDF80939F0281E0C7DF80939E0284E06E
:10061000C3DF8093AE0285E0BFDF8093980286E05F
:10062000BBDF8093A20287E0B7DF8093B10288E04E
:10063000B3DF8093930285E0CCDF8093CA0286E02B
:10064000C8DF8093B60287E0C4DF8093A50289E00B
:10065000A3DF8093C7028AE09FDF8093C0028BE014
:100660009BDF809392028CE097DF8093B4028DE051
:1006700093DF8093A80280E08FDF8093B502089516
:1006800092B1907F8F70982B92B9089586E0F8CF41
:10069000089589E0F5CF089585E0F2CF08958AE0C6
:1006A000EFCF089580E0ECCF0895CF92DF92EF92E4
:1006B000FF920F931F93BC0180E090E0D9D628E40D
:1006C00031EE42E850E440D6A7D6AB0160E070E0DE
:1006D00010928A0210928B0210928C0210928D025C
:1006E00010928E0210928F0210929002109291023C
:1006F00091E0E0E000918A0210918B0220918C023F
:1007000030918D02C0908E02D0908F02E0909002C6
:10071000F0909102892F041715072607370708F470
:100720008E2F811109C0892FC416D506E606F7065B
:1007300008F48E2F8823F1F2B5DF1F910F91FF90FF
:10074000EF90DF90CF900895BC0180E090E090D6CC
:1007500025EE30ED4AEA50E4F7D55ED6AB01BC0198
:1007600010928A0210928B0210928C0210928D02CB
:1007700080918A0290918B02A0918C02B0918D029F
:10078000481759076A077B0798F78CCF0895439A53
:10079000089543980895CF93DF93EC0177DFCE015E
:1007A000D3DFDF91CF910895CF93DF93EC0171DF19
:1007B000CE01CADFDF91CF910895CF93DF93EC0193
:1007C0006BDFCE0172DFDF91CF910895CF93DF937E
:1007D000EC0165DFCE0169DFDF91CF910895F894D8
:1007E00072DEB8DECCDE97DE7BDE9DDC04DDC2DEB1
:1007F00078DD80DD8AE080936A0080E38DBB7894A9
:1008000008951F920F920FB60F9211240BB60F92FC
:100810002F933F934F935F936F937F938F939F9308
:10082000AF93BF93CF93DF93EF93FF93C091D60025
:100830008091880290918902019771F5C0939D0281
:1008400080910C0290910D02019769F4C093A0026F
:1008500080910C0290910D02019690930D0280936D
:100860000C02C0E019C080910C0290910D02029719
:1008700099F4C093AD02109289021092880281E02F
:1008800090E090930D0280930C028091A0028093DF
:100890002801C0932A01C0E08091860290918702CE
:1008A000019709F042C0C0939D0280910A02909185
:1008B0000B02019781F4D0E0D093BA02C093B90241
:1008C00080910A0290910B02019690930B02809303
:1008D0000A02C0E02AC080910A0290910B0202979E
:1008E00021F5D0E0D093AA02C093A9022091B902C9
:1008F0003091BA024FEF429FC001439F900D1124E7
:10090000C80FD91FD0936502C093640281E090E0C4
:1009100090930B0280930A02909385028093840245
:100920001092870210928602C0E08091820290911C
:100930008302019709F043C0C0939D0280910A028F
:1009400090910B02019781F4D0E0D093BA02C0934A
:10095000B90280910A0290910B02019690930B02CA
:1009600080930A02C0E02BC080910A0290910B0292
:10097000029729F58C2F90E09093AA028093A90208
:100980002091B9023091BA024FEF429FE001439F9C
:10099000D00D1124C80FD91FD0936502C0936402F3
:1009A00081E090E090930B0280930A029093810281
:1009B000809380021092830210928202C0E08091A4
:1009C0007E0290917F02019709F042C0C0939D0280
:1009D0008091080290910902019781F4D0E0D093B0
:1009E000B302C093B202809108029091090201966D
:1009F0009093090280930802C0E02AC08091080207
:100A000090910902029721F58C2F90E09093C602F5
:100A10008093C5024091B2025091B3026FEF649F80
:100A20009001659F300D1124820F931F90936302F4
:100A30008093620281E090E0909309028093080223
:100A400090937D0280937C0210927F0210927E022E
:100A500080917A0290917B02019709F042C0C09385
:100A60009D028091080290910902019781F4D0E0E3
:100A7000D093B302C093B202809108029091090210
:100A800001969093090280930802C0E02AC08091E9
:100A9000080290910902029721F58C2F90E0909323
:100AA000C6028093C5024091B2025091B3026FEF2B
:100AB000649F9001659F300D1124820F931F9093C6
:100AC00063028093620281E090E090930902809338
:100AD0000802909379028093780210927B02109220
:100AE0007A028091760290917702019769F4C0931F
:100AF0009D0281E090E0909307028093060210929D
:100B0000770210927602C0E0809174029091750293
:100B1000019769F4C0939D0281E090E090930502F3
:100B2000809304021092750210927402C0E08091CA
:100B3000720290917302019769F4C0939D0281E063
:100B400090E090930302809302021092730210923D
:100B50007202C0E08091700290917102019709F0D9
:100B600043C0C0939D0280910002909101020197C1
:100B700081F4D0E0D0935F02C0935E0280910002C6
:100B80009091010201969093010280930002C0E0CF
:100B90002BC08091000290910102029781F48C2F6A
:100BA00090E090935D0280935C02809100029091AE
:100BB00001020196909301028093000215C080917A
:100BC000000290910102039779F481E090E0909304
:100BD0006F0280936E029093010280930002109244
:100BE000710210927002C0E080916C0290916D02CF
:100BF0000197A1F4C0939D0281E090E090936B0275
:100C000080936A0210926D0210926C0280916802C9
:100C100090916902019709F08AC107C0809168022A
:100C200090916902019779F401C0C0E0C0939D02E0
:100C300081E090E0909367028093660210926902CF
:100C40001092680274C1C83311F420DD08C0C233A9
:100C500011F41FDD08C0C43311F421DD08C0C63310
:100C600011F41ADDEAC0C53311F41CDDEDC0C43542
:100C700009F0E3C088ED8093D10089E58093D60028
:100C8000E0EDF0E0808186FFFDCF8091AE028093A1
:100C9000D600E0EDF0E0808180648083808186FF73
:100CA000FDCF809198028093D600E0EDF0E0808146
:100CB00080648083808186FFFDCF8091A202809333
:100CC000D600E0EDF0E0808180648083808186FF43
:100CD000FDCF8091B1028093D600E0EDF0E08081FD
:100CE00080648083808186FFFDCF80919302809312
:100CF000D600E0EDF0E0808180648083808186FF13
:100D0000FDCF8091CA028093D600E0EDF0E08081B3
:100D100080648083808186FFFDCF8091B6028093BE
:100D2000D600E0EDF0E0808180648083808186FFE2
:100D3000FDCF8091A5028093D600E0EDF0E08081A8
:100D400080648083808186FFFDCF8091C70280937D
:100D5000D600E0EDF0E0808180648083808186FFB2
:100D6000FDCF8091C0028093D600E0EDF0E080815D
:100D700080648083808186FFFDCF80919202809382
:100D8000D600E0EDF0E0808180648083808186FF82
:100D9000FDCF8091B4028093D600E0EDF0E0808139
:100DA00080648083808186FFFDCF8091A80280933C
:100DB000D600E0EDF0E0808180648083808186FF52
:100DC000FDCF809195028093D600E0EDF0E0808128
:100DD00080648083808186FFFDCF80919F02809315
:100DE000D600E0EDF0E0808180648083808186FF22
:100DF000FDCF80919E028093D600E0EDF0E08081EF
:100E000080648083808186FFFDCF8091B5028093CE
:100E1000D600E0EDF0E0808180648083808186FFF1
:100E2000FDCF8AE58093D600E0EDF0E0808180641C
:100E3000808388E98093D1000BC0CB3629F4809160
:100E40000E028093D60008C0C73311F4A0DC0DC099
:100E5000C93311F49EDC11C0C23539F481E090E051
:100E6000909389028093880211C0C33531F48FEFCB
:100E70008093280180932A0112C0C53539F481E09E
:100E800090E0909387028093860212C0C63539F4B1
:100E900081E090E0909383028093820212C0C73574
:100EA00039F481E090E090937F0280937E0212C03B
:100EB000C83539F481E090E090937B0280937A0208
:100EC00012C0C03839F481E090E0909377028093AB
:100ED000760212C0C13839F481E090E09093750237
:100EE0008093740212C0C23839F481E090E090938C
:100EF00073028093720212C0C33839F481E090E02B
:100F0000909371028093700214C0C43839F481E068
:100F100090E090936D0280936C020BC0C53849F449
:100F200081E090E0909369028093680202C0C0E083
:100F300092CEFF91EF91DF91CF91BF91AF919F91B1
:100F40008F917F916F915F914F913F912F910F9072
:100F50000BBE0F900FBE0F901F90189540DC63E002
:100F600081E08FD988E392E07ED961E082E089D97F
:100F700085E492E078D98FEF80930401C5E0D1E059
:100F80008091840290918502019749F480916402D6
:100F90009091650200DC109285021092840280918B
:100FA000800290918102019749F4809164029091AE
:100FB0006502FADB109281021092800280917C021D
:100FC00090917D02019749F48091620290916302B1
:100FD000FDDB10927D0210927C028091780290914C
:100FE0007902019709F013C1809162029091630226
:100FF000E4DB1092790210927802809106029091BF
:101000000702019709F01BC180919D0290E0909327
:101010006102809360021092BE021092BD02809124
:1010200060029091610280E090E0C0D929E989E5F1
:1010300091E0215080409040E1F700008091BD0296
:101040009091BE0201969093BE028093BD022091C2
:101050006002309161022817390738F72FEF8FEFC0
:101060009CE2215080409040E1F700C00000E2D9AE
:101070001092070210920602E2C080910402909141
:101080000502019709F0F3C080919D0290E09093D2
:101090006102809360021092BE021092BD028091A4
:1010A00060029091610280E090E097D929E989E59A
:1010B00091E0215080409040E1F700008091BD0216
:1010C0009091BE0201969093BE028093BD02209142
:1010D0006002309161022817390738F72FEF8FEF40
:1010E0009CE2215080409040E1F700C00000A9D967
:1010F0001092050210920402809102029091030264
:101100000197C1F580919D0290E0909361028093D8
:1011100060021092BE021092BD0280916002909116
:10112000610280E090E070D929E989E591E02150E1
:1011300080409040E1F700008091BD029091BE0296
:1011400001969093BE028093BD022091600230917F
:1011500061022817390738F72FEF8FEF9CE22150F3
:1011600080409040E1F700C0000072D91092030265
:101170001092020280916E0290916F02019789F4A1
:101180009BD860915C0270915D0280915E029091AB
:101190005F0277D880919D023ED810926F02109224
:1011A0006E0280916A0290916B02019789F480919E
:1011B0009D0288832FEF8FEF99E52150804090406A
:1011C000E1F700C00000188210926B0210926A02D0
:1011D0008091660290916702019739F480919D0297
:1011E0008883109267021092660205DAC9CE809158
:1011F0009D0290E090936102809360021092BE0283
:101200001092BD0280916002909161020CCF80919A
:10121000060290910702019709F02FCFE8CF809145
:101220009D0290E090936102809360021092BE0252
:101230001092BD02809160029091610234CF809142
:10124000040290910502019709F056CFE8CF8091F2
:101250009D0290E090936102809360021092BE0222
:101260001092BD0280916002909161025ACF8091EC
:10127000020290910302019709F07CCFE8CF505809
:10128000BB27AA270ED048C139D130F03ED120F07B
:1012900031F49F3F11F41EF42EC10EF4E095E7FBEC
:1012A00024C1E92F4AD180F3BA1762077307840774
:1012B000950718F071F49EF562C10EF4E0950B2EBF
:1012C000BA2FA02D0B01B90190010C01CA01A00198
:1012D0001124FF27591B99F0593F50F4503E68F1F3
:1012E0001A16F040A22F232F342F4427585FF3CF34
:1012F000469537952795A795F0405395C9F77EF405
:101300001F16BA0B620B730B840BBAF09150A1F04D
:10131000FF0FBB1F661F771F881FC2F70EC0BA0FD3
:10132000621F731F841F48F4879577956795B7955B
:10133000F7959E3F08F0B3CF9395880F08F0992753
:10134000EE0F9795879508950CD0E6C0DED040F05B
:10135000D5D030F021F45F3F19F0C7C0511110C152
:10136000CAC0EBD098F39923C9F35523B1F3951B69
:10137000550BBB27AA2762177307840738F09F5FB6
:101380005F4F220F331F441FAA1FA9F333D00E2E25
:101390003AF0E0E830D091505040E695001CCAF792
:1013A00029D0FE2F27D0660F771F881FBB1F261757
:1013B00037074807AB07B0E809F0BB0B802DBF012A
:1013C000FF2793585F4F2AF09E3F510568F08DC06C
:1013D000D7C05F3FECF3983EDCF386957795679531
:1013E000B795F7959F5FC9F7880F911D96958795DB
:1013F00097F90895E1E0660F771F881FBB1F6217FA
:1014000073078407BA0720F0621B730B840BBA0BB7
:10141000EE1F88F7E095089598D088F09F5790F0D8
:10142000B92F9927B751A0F0D1F0660F771F881F09
:10143000991F1AF0BA95C9F712C0B13081F09FD048
:10144000B1E008959CC0672F782F8827B85F39F0E6
:10145000B93FCCF3869577956795B395D9F73EF468
:1014600090958095709561957F4F8F4F9F4F089510
:10147000E89409C097FB3EF490958095709561952E
:101480007F4F8F4F9F4F9923A9F0F92F96E9BB27E4
:101490009395F695879577956795B795F111F8CF60
:1014A000FAF4BB0F11F460FF1BC06F5F7F4F8F4FCB
:1014B0009F4F16C0882311F096E911C0772321F0C1
:1014C0009EE8872F762F05C0662371F096E8862F59
:1014D00070E060E02AF09A95660F771F881FDAF7B0
:1014E000880F9695879597F9089597F99F6780E8F3
:1014F00070E060E008959FEF80EC089500240A9466
:101500001616170618060906089500240A941216DE
:101510001306140605060895092E0394000C11F411
:10152000882352F0BB0F40F4BF2B11F460FF04C0BE
:101530006F5F7F4F8F4F9F4F089557FD9058440F17
:10154000551F59F05F3F71F04795880F97FB991F22
:1015500061F09F3F79F087950895121613061406DF
:10156000551FF2CF4695F1DF08C01616170618066C
:10157000991FF1CF86957105610508940895E89447
:10158000BB2766277727CB0197F90895F894FFCFFB
:10159000010001000100010001000100010005201F
:1015A000202020202020202020202020202020203B
:1015B000202020202020202020202020202020202B
:1015C0002020202020202000464235204755492059
:1015D0004D4F444500466972656269726420452D2D
:0C15E00079616E7472612047756900002B
:00000001FF
