:100000000C9472000C9493000C9493000C94930045
:100010000C9493000C9493000C9493000C94930014
:100020000C9493000C9493000C9493000C94930004
:100030000C9493000C9493000C9493000C949300F4
:100040000C9493000C9493000C9493000C949300E4
:100050000C9493000C9493000C9493000C949300D4
:100060000C9493000C9493000C9493000C949300C4
:100070000C9493000C9493000C9493000C949300B4
:100080000C9493000C9493000C9493000C949300A4
:100090000C9493000C9493000C9493000C94930094
:1000A0000C9493000C9493000C9493000C94930084
:1000B0000C9493000C9493000C9493000C94930074
:1000C0000C9493000C9493000C9493000C94930064
:1000D0000C9493000C9493000C9493000C94930054
:1000E0000C94930011241FBECFEFD1E2DEBFCDBF31
:1000F00000E00CBF12E0A0E0B2E0E2EBF1E000E0D3
:100100000BBF02C007900D92A030B107D9F712E0E3
:10011000A0E0B2E001C01D92A030B107E1F70E945B
:10012000B8000C94D7000C9400003B9A43980895B3
:1001300086B1886088B9089586B1877F88B90895A7
:100140000E9498008FEF9FEFA8E081509040A04060
:10015000E1F700C000000E949C008FEF9FEFA8E035
:1001600081509040A040E1F700C00000089508953C
:100170000E9498008FEF9FE7A6E181509040A04039
:10018000E1F700C000000E949C000E9498008FEFE1
:100190009FE7A6E181509040A040E1F700C0000039
:1001A0000E949C000E94980080E090E00895F894DE
:0201B000FFCF7F
:00000001FF
